{
  "_format": "hh-sol-artifact-1",
  "contractName": "BA",
  "sourceName": "contracts/MyContract.sol",
  "abi": [
    {
      "inputs": [],
      "stateMutability": "nonpayable",
      "type": "constructor"
    },
    {
      "anonymous": false,
      "inputs": [
        {
          "indexed": false,
          "internalType": "string",
          "name": "message",
          "type": "string"
        }
      ],
      "name": "CompareEvent",
      "type": "event"
    },
    {
      "anonymous": false,
      "inputs": [
        {
          "indexed": false,
          "internalType": "uint256",
          "name": "expID",
          "type": "uint256"
        },
        {
          "indexed": false,
          "internalType": "string",
          "name": "expHash",
          "type": "string"
        }
      ],
      "name": "GetEvent",
      "type": "event"
    },
    {
      "anonymous": false,
      "inputs": [
        {
          "indexed": false,
          "internalType": "uint256",
          "name": "expID",
          "type": "uint256"
        },
        {
          "indexed": false,
          "internalType": "string",
          "name": "message",
          "type": "string"
        }
      ],
      "name": "RemoveEvent",
      "type": "event"
    },
    {
      "anonymous": false,
      "inputs": [
        {
          "indexed": false,
          "internalType": "uint256",
          "name": "expID",
          "type": "uint256"
        },
        {
          "indexed": false,
          "internalType": "string",
          "name": "expHash",
          "type": "string"
        }
      ],
      "name": "SetEvent",
      "type": "event"
    },
    {
      "anonymous": false,
      "inputs": [
        {
          "indexed": false,
          "internalType": "string",
          "name": "name",
          "type": "string"
        }
      ],
      "name": "TestEvent",
      "type": "event"
    },
    {
      "inputs": [
        {
          "internalType": "uint16",
          "name": "expID",
          "type": "uint16"
        },
        {
          "internalType": "string",
          "name": "newHash",
          "type": "string"
        }
      ],
      "name": "compareHash",
      "outputs": [
        {
          "internalType": "string",
          "name": "",
          "type": "string"
        }
      ],
      "stateMutability": "nonpayable",
      "type": "function"
    },
    {
      "inputs": [
        {
          "internalType": "uint16",
          "name": "expID",
          "type": "uint16"
        }
      ],
      "name": "getInput",
      "outputs": [
        {
          "internalType": "string",
          "name": "",
          "type": "string"
        }
      ],
      "stateMutability": "nonpayable",
      "type": "function"
    },
    {
      "inputs": [],
      "name": "isOwner",
      "outputs": [
        {
          "internalType": "bool",
          "name": "",
          "type": "bool"
        }
      ],
      "stateMutability": "view",
      "type": "function"
    },
    {
      "inputs": [],
      "name": "owner",
      "outputs": [
        {
          "internalType": "address",
          "name": "",
          "type": "address"
        }
      ],
      "stateMutability": "view",
      "type": "function"
    },
    {
      "inputs": [
        {
          "internalType": "uint16",
          "name": "expID",
          "type": "uint16"
        }
      ],
      "name": "removeHash",
      "outputs": [
        {
          "internalType": "string",
          "name": "",
          "type": "string"
        }
      ],
      "stateMutability": "nonpayable",
      "type": "function"
    },
    {
      "inputs": [
        {
          "internalType": "uint16",
          "name": "expID",
          "type": "uint16"
        },
        {
          "internalType": "string",
          "name": "expHash",
          "type": "string"
        }
      ],
      "name": "setInput",
      "outputs": [],
      "stateMutability": "nonpayable",
      "type": "function"
    },
    {
      "inputs": [
        {
          "internalType": "string",
          "name": "text",
          "type": "string"
        }
      ],
      "name": "test",
      "outputs": [],
      "stateMutability": "nonpayable",
      "type": "function"
    }
  ],
  "bytecode": "0x60806040526040518060200160405280600081525060019081620000249190620002f3565b503480156200003257600080fd5b50336000806101000a81548173ffffffffffffffffffffffffffffffffffffffff021916908373ffffffffffffffffffffffffffffffffffffffff160217905550620003da565b600081519050919050565b7f4e487b7100000000000000000000000000000000000000000000000000000000600052604160045260246000fd5b7f4e487b7100000000000000000000000000000000000000000000000000000000600052602260045260246000fd5b60006002820490506001821680620000fb57607f821691505b602082108103620001115762000110620000b3565b5b50919050565b60008190508160005260206000209050919050565b60006020601f8301049050919050565b600082821b905092915050565b6000600883026200017b7fffffffffffffffffffffffffffffffffffffffffffffffffffffffffffffffff826200013c565b6200018786836200013c565b95508019841693508086168417925050509392505050565b6000819050919050565b6000819050919050565b6000620001d4620001ce620001c8846200019f565b620001a9565b6200019f565b9050919050565b6000819050919050565b620001f083620001b3565b62000208620001ff82620001db565b84845462000149565b825550505050565b600090565b6200021f62000210565b6200022c818484620001e5565b505050565b5b8181101562000254576200024860008262000215565b60018101905062000232565b5050565b601f821115620002a3576200026d8162000117565b62000278846200012c565b8101602085101562000288578190505b620002a062000297856200012c565b83018262000231565b50505b505050565b600082821c905092915050565b6000620002c860001984600802620002a8565b1980831691505092915050565b6000620002e38383620002b5565b9150826002028217905092915050565b620002fe8262000079565b67ffffffffffffffff8111156200031a576200031962000084565b5b620003268254620000e2565b6200033382828562000258565b600060209050601f8311600181146200036b576000841562000356578287015190505b620003628582620002d5565b865550620003d2565b601f1984166200037b8662000117565b60005b82811015620003a5578489015182556001820191506020850194506020810190506200037e565b86831015620003c55784890151620003c1601f891682620002b5565b8355505b6001600288020188555050505b505050505050565b6117af80620003ea6000396000f3fe608060405234801561001057600080fd5b506004361061007d5760003560e01c80638da5cb5b1161005b5780638da5cb5b146100fe5780638f32d59b1461011c578063ebaa7e391461013a578063f9fbd5541461016a5761007d565b80630a87119f146100825780630d0e7899146100b257806365a3e887146100ce575b600080fd5b61009c60048036038101906100979190610a02565b610186565b6040516100a99190610abf565b60405180910390f35b6100cc60048036038101906100c79190610c16565b61032a565b005b6100e860048036038101906100e39190610a02565b610538565b6040516100f59190610abf565b60405180910390f35b610106610724565b6040516101139190610cb3565b60405180910390f35b610124610748565b6040516101319190610ce9565b60405180910390f35b610154600480360381019061014f9190610c16565b6107af565b6040516101619190610abf565b60405180910390f35b610184600480360381019061017f9190610d04565b61091d565b005b606060016040516101979190610e50565b6040518091039020600260008461ffff1661ffff1681526020019081526020016000206040516101c79190610e50565b60405180910390200361022b577ffb4c9be624be99a4ed8f20c6d8cb28ae11a91feb669063bedca8a9a63064e023826040516102039190610f1e565b60405180910390a1604051806060016040528060238152602001611757602391399050610325565b7ffb4c9be624be99a4ed8f20c6d8cb28ae11a91feb669063bedca8a9a63064e02382600260008561ffff1661ffff168152602001908152602001600020604051610276929190610fe5565b60405180910390a1600260008361ffff1661ffff16815260200190815260200160002080546102a490610d7c565b80601f01602080910402602001604051908101604052809291908181526020018280546102d090610d7c565b801561031d5780601f106102f25761010080835404028352916020019161031d565b820191906000526020600020905b81548152906001019060200180831161030057829003601f168201915b505050505090505b919050565b60008054906101000a900473ffffffffffffffffffffffffffffffffffffffff1673ffffffffffffffffffffffffffffffffffffffff163373ffffffffffffffffffffffffffffffffffffffff16146103b8576040517f08c379a00000000000000000000000000000000000000000000000000000000081526004016103af90611061565b60405180910390fd5b61ffff8261ffff161115610401576040517f08c379a00000000000000000000000000000000000000000000000000000000081526004016103f8906110f3565b60405180910390fd5b60016040516104109190610e50565b6040518091039020600260008461ffff1661ffff1681526020019081526020016000206040516104409190610e50565b604051809103902014610488576040517f08c379a000000000000000000000000000000000000000000000000000000000815260040161047f90611185565b60405180910390fd5b600081905060408151146104d1576040517f08c379a00000000000000000000000000000000000000000000000000000000081526004016104c890611217565b60405180910390fd5b81600260008561ffff1661ffff16815260200190815260200160002090816104f991906113c4565b507fff188f9193171a3fe58d88fda56a33bf68500567643e7eb583074bb186965d57838360405161052b929190611496565b60405180910390a1505050565b606060008054906101000a900473ffffffffffffffffffffffffffffffffffffffff1673ffffffffffffffffffffffffffffffffffffffff163373ffffffffffffffffffffffffffffffffffffffff16146105c8576040517f08c379a00000000000000000000000000000000000000000000000000000000081526004016105bf90611061565b60405180910390fd5b60016040516105d79190610e50565b6040518091039020600260008461ffff1661ffff1681526020019081526020016000206040516106079190610e50565b6040518091039020146106af57600260008361ffff1661ffff168152602001908152602001600020600061063b9190610957565b7f41342e629bb8308f672841688d243fa0fe31040a7851c2b4929a057f7da384578260405161066a9190611512565b60405180910390a16040518060400160405280600d81526020017f486173682064656c657465642e00000000000000000000000000000000000000815250905061071f565b7f41342e629bb8308f672841688d243fa0fe31040a7851c2b4929a057f7da38457826040516106de919061158c565b60405180910390a16040518060400160405280601681526020017f4578706572696d656e742049442069732077726f6e670000000000000000000081525090505b919050565b60008054906101000a900473ffffffffffffffffffffffffffffffffffffffff1681565b60008060009054906101000a900473ffffffffffffffffffffffffffffffffffffffff1673ffffffffffffffffffffffffffffffffffffffff163373ffffffffffffffffffffffffffffffffffffffff16036107a757600190506107ac565b600090505b90565b6060600082905060408151036108c5578280519060200120600260008661ffff1661ffff1681526020019081526020016000206040516107ef9190610e50565b60405180910390200361086f577f4aceab2fe3a1aa799935f0fa3a08dff3cdd0146e711f29735d53240d4edaa69460405161082990611606565b60405180910390a16040518060400160405280601781526020017f476976656e20686173682069732076657269666965642e000000000000000000815250915050610917565b7f4aceab2fe3a1aa799935f0fa3a08dff3cdd0146e711f29735d53240d4edaa69460405161089c906116be565b60405180910390a16040518060800160405280605481526020016116df60549139915050610917565b7f4aceab2fe3a1aa799935f0fa3a08dff3cdd0146e711f29735d53240d4edaa6946040516108f290611217565b60405180910390a1604051806060016040528060248152602001611733602491399150505b92915050565b7fe75028ff36bb6473da3731a30e1aeeae9988e2415dba2c4e91e0357955065fba8160405161094c9190610abf565b60405180910390a150565b50805461096390610d7c565b6000825580601f106109755750610994565b601f0160209004906000526020600020908101906109939190610997565b5b50565b5b808211156109b0576000816000905550600101610998565b5090565b6000604051905090565b600080fd5b600080fd5b600061ffff82169050919050565b6109df816109c8565b81146109ea57600080fd5b50565b6000813590506109fc816109d6565b92915050565b600060208284031215610a1857610a176109be565b5b6000610a26848285016109ed565b91505092915050565b600081519050919050565b600082825260208201905092915050565b60005b83811015610a69578082015181840152602081019050610a4e565b60008484015250505050565b6000601f19601f8301169050919050565b6000610a9182610a2f565b610a9b8185610a3a565b9350610aab818560208601610a4b565b610ab481610a75565b840191505092915050565b60006020820190508181036000830152610ad98184610a86565b905092915050565b600080fd5b600080fd5b7f4e487b7100000000000000000000000000000000000000000000000000000000600052604160045260246000fd5b610b2382610a75565b810181811067ffffffffffffffff82111715610b4257610b41610aeb565b5b80604052505050565b6000610b556109b4565b9050610b618282610b1a565b919050565b600067ffffffffffffffff821115610b8157610b80610aeb565b5b610b8a82610a75565b9050602081019050919050565b82818337600083830152505050565b6000610bb9610bb484610b66565b610b4b565b905082815260208101848484011115610bd557610bd4610ae6565b5b610be0848285610b97565b509392505050565b600082601f830112610bfd57610bfc610ae1565b5b8135610c0d848260208601610ba6565b91505092915050565b60008060408385031215610c2d57610c2c6109be565b5b6000610c3b858286016109ed565b925050602083013567ffffffffffffffff811115610c5c57610c5b6109c3565b5b610c6885828601610be8565b9150509250929050565b600073ffffffffffffffffffffffffffffffffffffffff82169050919050565b6000610c9d82610c72565b9050919050565b610cad81610c92565b82525050565b6000602082019050610cc86000830184610ca4565b92915050565b60008115159050919050565b610ce381610cce565b82525050565b6000602082019050610cfe6000830184610cda565b92915050565b600060208284031215610d1a57610d196109be565b5b600082013567ffffffffffffffff811115610d3857610d376109c3565b5b610d4484828501610be8565b91505092915050565b7f4e487b7100000000000000000000000000000000000000000000000000000000600052602260045260246000fd5b60006002820490506001821680610d9457607f821691505b602082108103610da757610da6610d4d565b5b50919050565b600081905092915050565b60008190508160005260206000209050919050565b60008154610dda81610d7c565b610de48186610dad565b94506001821660008114610dff5760018114610e1457610e47565b60ff1983168652811515820286019350610e47565b610e1d85610db8565b60005b83811015610e3f57815481890152600182019150602081019050610e20565b838801955050505b50505092915050565b6000610e5c8284610dcd565b915081905092915050565b6000819050919050565b6000819050919050565b6000610e96610e91610e8c846109c8565b610e71565b610e67565b9050919050565b610ea681610e7b565b82525050565b7f476976656e206578706572696d656e7420696420646f6573206e6f742065786960008201527f73742e0000000000000000000000000000000000000000000000000000000000602082015250565b6000610f08602383610a3a565b9150610f1382610eac565b604082019050919050565b6000604082019050610f336000830184610e9d565b8181036020830152610f4481610efb565b905092915050565b60008190508160005260206000209050919050565b60008154610f6e81610d7c565b610f788186610a3a565b94506001821660008114610f935760018114610fa957610fdc565b60ff198316865281151560200286019350610fdc565b610fb285610f4c565b60005b83811015610fd457815481890152600182019150602081019050610fb5565b808801955050505b50505092915050565b6000604082019050610ffa6000830185610e9d565b818103602083015261100c8184610f61565b90509392505050565b7f4e6f74206f776e65720000000000000000000000000000000000000000000000600082015250565b600061104b600983610a3a565b915061105682611015565b602082019050919050565b6000602082019050818103600083015261107a8161103e565b9050919050565b7f4572726f723a204578706572696d656e742049442063616e277420626520626960008201527f67676572207468616e2036353533350000000000000000000000000000000000602082015250565b60006110dd602f83610a3a565b91506110e882611081565b604082019050919050565b6000602082019050818103600083015261110c816110d0565b9050919050565b7f4572726f723a204f76657277726974696e67206973206e6f7420616c6c6f776560008201527f642e000000000000000000000000000000000000000000000000000000000000602082015250565b600061116f602283610a3a565b915061117a82611113565b604082019050919050565b6000602082019050818103600083015261119e81611162565b9050919050565b7f4572726f723a2048617368206973206e6f74203235362d626974202833322d6260008201527f7974652900000000000000000000000000000000000000000000000000000000602082015250565b6000611201602483610a3a565b915061120c826111a5565b604082019050919050565b60006020820190508181036000830152611230816111f4565b9050919050565b60006020601f8301049050919050565b600082821b905092915050565b6000600883026112847fffffffffffffffffffffffffffffffffffffffffffffffffffffffffffffffff82611247565b61128e8683611247565b95508019841693508086168417925050509392505050565b60006112c16112bc6112b784610e67565b610e71565b610e67565b9050919050565b6000819050919050565b6112db836112a6565b6112ef6112e7826112c8565b848454611254565b825550505050565b600090565b6113046112f7565b61130f8184846112d2565b505050565b5b81811015611333576113286000826112fc565b600181019050611315565b5050565b601f8211156113785761134981610f4c565b61135284611237565b81016020851015611361578190505b61137561136d85611237565b830182611314565b50505b505050565b600082821c905092915050565b600061139b6000198460080261137d565b1980831691505092915050565b60006113b4838361138a565b9150826002028217905092915050565b6113cd82610a2f565b67ffffffffffffffff8111156113e6576113e5610aeb565b5b6113f08254610d7c565b6113fb828285611337565b600060209050601f83116001811461142e576000841561141c578287015190505b61142685826113a8565b86555061148e565b601f19841661143c86610f4c565b60005b828110156114645784890151825560018201915060208501945060208101905061143f565b86831015611481578489015161147d601f89168261138a565b8355505b6001600288020188555050505b505050505050565b60006040820190506114ab6000830185610e9d565b81810360208301526114bd8184610a86565b90509392505050565b7f486173682064656c657465642e00000000000000000000000000000000000000600082015250565b60006114fc600d83610a3a565b9150611507826114c6565b602082019050919050565b60006040820190506115276000830184610e9d565b8181036020830152611538816114ef565b905092915050565b7f4578706572696d656e742049442069732077726f6e6700000000000000000000600082015250565b6000611576601683610a3a565b915061158182611540565b602082019050919050565b60006040820190506115a16000830184610e9d565b81810360208301526115b281611569565b905092915050565b7f476976656e20686173682069732076657269666965642e000000000000000000600082015250565b60006115f0601783610a3a565b91506115fb826115ba565b602082019050919050565b6000602082019050818103600083015261161f816115e3565b9050919050565b7f476976656e2068617368206973206e6f74206d61746368696e6720776974682060008201527f7468652073746f72656420686173682e205265717565737420756e636f72727560208201527f70746564206861736820746f207665726966792e000000000000000000000000604082015250565b60006116a8605483610a3a565b91506116b382611626565b606082019050919050565b600060208201905081810360008301526116d78161169b565b905091905056fe476976656e2068617368206973206e6f74206d61746368696e672077697468207468652073746f72656420686173682e205265717565737420756e636f72727570746564206861736820746f207665726966792e4572726f723a2048617368206973206e6f74203235362d626974202833322d6279746529476976656e206578706572696d656e7420696420646f6573206e6f742065786973742ea26469706673582212203219fa2bd3df93e20495ae6594d3722449ec2f94b530c295fc70b3bd3fb0084364736f6c63430008110033",
  "linkReferences": {},
  "deployedLinkReferences": {}
}